:100000000C94C6060C94EE060C94EE060C94EE06C8
:100010000C94EE060C94EE060C94EE060C94EE0690
:100020000C94EE060C94EE060C941F0F0C94910F9A
:100030000C94EE060C94EE060C94EE060C94EE0670
:100040000C94EE060C94B3080C94EE060C94EE0699
:100050000C94EE060C94EE060C94EE060C946908D3
:100060000C94EE060C94EE060C94EE060C94EE0640
:100070000C94EE060C94EE060C94EE060C94EE0630
:100080000C94BE090C94EE060C94EE060C94EE064D
:100090000C94EE060C94EE060C94EE060C94EE0610
:1000A0000C94EE060C94EE060C94EE0605A84CCDCE
:1000B000B2D44EB93836A9020C50B9918688083CA2
:1000C000A6AAAA2ABE000000803FF0F89C8E878373
:1000D000878E9CF8F00000FEFF0303030303070E66
:1000E000FCF80000FEFF0303030303070EFCF80007
:1000F00000FFFF00000000000000FFFF0000FEFF07
:100100008383838383C7EE7C380000F8FC0E0703EB
:100110000303070EFCF800003F7FE0C08080C0E0D2
:100120007F3FFFFF01010101010101FFFF0000FF0F
:10013000FF0C0C0C0C1C3E77E3C100007FFFC0C01D
:10014000C0C0C0E0703F1F00001F3F70E0C0C0C0D3
:10015000E0703F1F00007FFFC1C1C1C1C1E3773E16
:100160001C00001F3F70E0C0C0C0E0703F1F0000D7
:1001700000000001FFFF01000000D5F08D14A1C8B0
:1001800081CFD9F1AF200000000000000000000086
:10019000000000000000000000000000000000005F
:1001A000000000000000000000000000000000004F
:1001B0000000F0000000000000000000000000004F
:1001C000000000000000000000000000000000002F
:1001D0000000C040608060909048482C30000000D3
:1001E000000000000000000000000000000000000F
:1001F00000000000000000000000000000000000FF
:1002000000000000000000000000000000000000EE
:10021000000000000000000000000000000000F0EE
:10022000F8F8FCFCF8F8F0F0E0E0E0C0C09090D8FE
:10023000FAFAFFFAFAD818101000000000000000C7
:10024000007C803E60801860020E321209090909A4
:10025000050600030C050640200080400000000059
:1002600000000C58783C3C6060000000000000007A
:10027000000000000000000000000000000000007E
:10028000000000000000000000000000000000006E
:100290008080E010888878000000000000FC047472
:1002A0007525897301FD057D417D05FD0187710D72
:1002B000A50D7187017D853D415FDE06728824743E
:1002C00024887102F00964545414FC0000F8F8FC0E
:1002D0003C1C9C5CBC54BC55FC58FA008A41000094
:1002E0001C1C9C9C9C9C9C9C9CBCFCF8F0E0C00052
:1002F00000000000000078888810E0808000000086
:100300000000000000000000000000000000DE21EE
:1003100021FC1331C9060000000000000079111112
:1003200079016038287801714949017810690161C3
:100330003829790108087809090179101078013104
:10034000494848300179111725227900003F3F7F45
:1003500078757275727572787F3F3F007878780093
:100360007E7F7F77737373737373737373737300A9
:100370000000000000000006E93113FC2121DE002E
:1003800000000000000000000000000000007BCC26
:1003900088BFD05A4FB8800000000000001E7EFECB
:1003A000F8E0800086CEFEFEF8E080C0F0FCFE3E65
:1003B0000E00FEFEFE00FEFEFE1E3E7CF8F0E0C0DB
:1003C000FEFEFE00FEFEFE1E3E7CF8F0E0C0FEFEDD
:1003D000FE00C0F0FCFEFEEEEEEEEEEEEEEE0E0ED9
:1003E0000E00FEFEFEEEEEEEEEFEFE7E7C3800001F
:1003F00000000000000080B84F58D0BF88CC7B00C0
:1004000000000000000000000000000000000000EC
:10041000070C1113161C070000000000000000016B
:10042000071F1F1F0F070301071F1F1F0F030000D8
:1004300000001F1F1F001F1F1F0000000001030FEF
:100440001F1F1F001F1F1F0000000001030F1F1FA1
:100450001F001F1F1F1C1C1C1C1C1C1C1C1C1C1CEC
:100460001C001F1F1F01000003070F1F1E1C181078
:10047000000000000000071C1613110C070000000C
:10048000000000000000000000000000000000006C
:10049000000000000000000000000000000000005C
:1004A000002060E0F078F0E060200000000898E8AC
:1004B000D85C7B7B5CD8E898080000000000000056
:1004C0000898E8D85C7B7B5CD8E8980800000000BE
:1004D0000000000898E8D85C7B7B5CD8E8980800AE
:1004E0000000002060E0F078F0E0602000000000F4
:1004F00000000000000000000000000000000000FC
:1005000000000000000000000000000000000000EB
:1005100000000000000000000000000000000000DB
:1005200000000101000000010100000000010100C5
:1005300000000000000000010100000000000000B9
:1005400001010000000000000000010100000000A7
:100550000000000101000000000000000001010097
:100560000000000001010000000101000000000087
:10057000000000000000000000000000000000007B
:1005800000000000000000903E914500D68000D69B
:10059000903E8100D68000D69145903E00D6914590
:1005A00080006B9145006B903E9143006B9145003C
:1005B0006B808100D6903A914500D68000D6903A63
:1005C0008100D68000D69145903A00D691458000B2
:1005D0006B9145006B903A9143006B9145006B80A5
:1005E0008100D69035914500D68000D690358100A7
:1005F000D691488000D6903500D691458000D6909F
:10060000358100D691438000D69040914300D69129
:10061000418000D690408100D6913E8000D6904027
:10062000913E00D691408000D69040914200D691F4
:100630003E8000D6903E914500D68000D6903E8107
:1006400000D68000D69145903E00D6914580006B43
:100650009145006B903E9143006B9145006B80810A
:1006600000D6903A914500D68000D6903A8100D6C7
:100670008000D69145903A00D6914580006B914517
:10068000006B903A9143006B9145006B808100D6DE
:100690009035914500D68000D690358100D691489E
:1006A0008000D6903500D691458000D690358100E7
:1006B000D691438000D69040914300D6914180006E
:1006C000D690408100D6913E8000D69040913E0069
:1006D000D691408000D69040914200D6913E800055
:1006E000D681F001020408102040800000000000C4
:1006F0003E5B4F5B3E3E6B4F6B3E1C3E7C3E1C1890
:100700003C7E3C181C577D571C1C5E7F5E1C0018ED
:100710003C1800FFE7C3E7FF0018241800FFE7DBE1
:10072000E7FF30483A060E2629792926407F05053D
:1007300007407F05253F5A3CE73C5A7F3E1C1C087A
:10074000081C1C3E7F14227F22145F5F005F5F063F
:10075000097F017F006689956A606060606094A28D
:10076000FFA29408047E040810207E201008082AA6
:100770001C08081C2A08081E101010100C1E0C1E45
:100780000C30383E3830060E3E0E060000000000E9
:1007900000005F00000007000700147F147F14248E
:1007A0002A7F2A1223130864623649562050000813
:1007B000070300001C2241000041221C002A1C7F6C
:1007C0001C2A08083E080800807030000808080845
:1007D00008000060600020100804023E5149453EB8
:1007E00000427F400072494949462141494D331832
:1007F00014127F1027454545393C4A49493141216A
:100800001109073649494936464949291E0000144D
:100810000000004034000000081422411414141495
:1008200014004122140802015909063E415D594E47
:100830007C1211127C7F494949363E414141227F59
:100840004141413E7F494949417F090909013E41F2
:100850004151737F0808087F00417F4100204041DB
:100860003F017F081422417F404040407F021C022C
:100870007F7F0408107F3E4141413E7F0909090600
:100880003E4151215E7F09192946264949493203D3
:10089000017F01033F4040403F1F2040201F3F4059
:1008A00038403F6314081463030478040361594912
:1008B0004D43007F41414102040810200041414165
:1008C0007F0402010204404040404000030708004A
:1008D00020545478407F28444438384444442838CD
:1008E0004444287F385454541800087E090218A440
:1008F000A49C787F0804047800447D400020404098
:100900003D007F1028440000417F40007C047804B3
:10091000787C080404783844444438FC18242418AB
:1009200018242418FC7C0804040848545454240453
:10093000043F44243C4040207C1C2040201C3C4080
:1009400030403C44281028444C9090907C4464549F
:100950004C44000836410000007700000041360892
:100960000002010204023C2623263C1EA1A16112C2
:100970003A4040207A3854545559215555794121EF
:1009800054547841215554784020545579400C1ED8
:100990005272123955555559395454545939555480
:1009A00054580000457C410002457D420001457CD1
:1009B00040F0292429F0F0282528F07C54554500E2
:1009C0002054547C547C0A097F49324949493232C7
:1009D00048484832324A4848303A4141217A3A42FE
:1009E000402078009DA0A07D39444444393D4040DA
:1009F000403D3C24FF2424487E4943662B2FFC2F96
:100A00002BFF0929F620C0887E0903205454794120
:100A10000000447D413048484A32384040227A0044
:100A20007A0A0A727D0D19317D2629292F28262957
:100A300029292630484D40203808080808080808A9
:100A400008382F10C8ACBA2F102834FA00007B00E9
:100A50000008142A142222142A1408950022009552
:100A6000AA005500AAAA55AA55AA000000FF001026
:100A70001010FF00141414FF001010FF00FF1010DE
:100A8000F010F0141414FC001414F700FF0000FF21
:100A900000FF1414F404FC141417101F10101F107E
:100AA0001F1414141F00101010F0000000001F107D
:100AB0001010101F10101010F010000000FF101088
:100AC00010101010101010FF10000000FF14000094
:100AD000FF00FF00001F10170000FC04F41414179F
:100AE00010171414F404F40000FF00F71414141485
:100AF000141414F700F7141414171410101F101FF7
:100B0000141414F4141010F010F000001F101F0043
:100B100000001F14000000FC140000F010F0101082
:100B2000FF10FF141414FF141010101F0000000019
:100B3000F010FFFFFFFFFFF0F0F0F0F0FFFFFF000D
:100B400000000000FFFF0F0F0F0F0F384444384420
:100B50007C2A2A3E147E02020606027E027E026380
:100B6000554941633844443C04407E201E2006021F
:100B70007E020299A5E7A5991C2A492A1C4C7201FC
:100B8000724C304A4D4D303048784830BC625A463D
:100B90003D3E494949007E0101017E2A2A2A2A2A2E
:100BA00044445F444440514A444040444A51400018
:100BB00000FF0103E080FF000008086B6B0836129D
:100BC000362436060F090F06000018180000001022
:100BD00010003040FF0101001F01011E00191D1708
:100BE00012003C3C3C3C00000000000000000024DF
:100BF0000027002A002D00300000000000250028FA
:100C0000002B002E0031000408020110408040102B
:100C10002040804080080204018040201002011022
:100C20008010204040200404040404030405020250
:100C30000202040302020202060606060606040475
:100C4000020202040406011501260137014A015D72
:100C500001720188019F01B801D201EE010B022A45
:100C6000024B026E029302BA02E40210033F0370C9
:100C700003A403DC03170455049704DD042705755A
:100C800005C80520067D06E0064907B8072D08A916
:100C9000082D09B9094D0AEA0A900B400CFA0CC05C
:100CA0000D910E6F0F5A1053115B1272139A14D4D8
:100CB0001520178018F519801B231DDE1EB420A6F1
:100CC00022B524E4263429A72B402E0031EA330034
:100CD00037453ABC3D68414C456B49C84D68524F59
:100CE00057805C006210111213151617181A1C1D7C
:100CF0001F21232527292C2E3134373A3E414549DF
:100D00004E52575C62686E757B838B939CA5AFB91E
:100D1000C4D0DCE9F7080B0002020201000904005C
:100D20000001020200000524001001052401010158
:100D30000424020605240600010705810310004073
:100D400009040100020A0000000705020240000039
:100D5000070583024000000403090412010002EFAA
:100D60000201404123368000010102030141726407
:100D700075696E6F204C4C430041726475696E6FEB
:100D8000204C656F6E6172646F00561811241FBE8F
:100D9000CFEFDAE0DEBFCDBF11E0A0E0B1E0ECEFD5
:100DA000F8E302C005900D92A43BB107D9F729E002
:100DB000A4EBB1E001C01D92A430B207E1F716E048
:100DC000C6ECD6E004C02197FE010E94711CC53C10
:100DD000D107C9F70E94C1110C947C1C0C9400002F
:100DE000CF92DF92EF92FF920F931F93CF93DF93F7
:100DF0006C017A018B01C0E0D0E0CE15DF0589F0EF
:100E0000D8016D918D01D601ED91FC910190F08199
:100E1000E02DC6010995892B11F47E0102C02196AF
:100E2000ECCFC701DF91CF911F910F91FF90EF9011
:100E3000DF90CF900895CF92DF92EF92FF921F93B1
:100E4000CF93DF93E82FF0E0E05FFE4F1081E62FB5
:100E5000F0E0603330F4EB51F34FE491CE2FD0E06B
:100E600006C0EE0FFF1FEB51F44FC591D4916E01F8
:100E7000E12CF12C60E074E284EF90E0A701960190
:100E80000E944019DA01C9010197A109B10900972F
:100E900021E0A207B10578F060E970ED83E090E011
:100EA000A70196010E944019DA01C9010197A10921
:100EB000B10923E001C021E01130C9F0133051F530
:100EC00030919100387F232B2093910090939900CB
:100ED00080939800D0937604C093750481E080934A
:100EE00074048091710082608093710013C030910E
:100EF000770431110FC030918100387F232B20936C
:100F00008100909389008093880080916F008260B7
:100F100080936F00DF91CF911F91FF90EF90DF9052
:100F2000CF900895E82FF0E0E05FFE4F80818130A0
:100F300019F0833089F0089580917704811122C0DF
:100F400080916F008D7F80936F0090916604E09197
:100F50006404F09165040CC01092740480917304D1
:100F6000811110C090917104E0916F04F0917004B0
:100F70008081282F30E0892F90E080959095822302
:100F80009323808308958091B4010895089508956E
:100F900080E090E008950E94771CCF92DF92EF925C
:100FA000FF920F931F93CF93DF9300D000D0CDB764
:100FB000DEB76217730784079507FCF489019A016D
:100FC0006B017C01A9019801261B370B480B590BBB
:100FD00069F029833A834B835C830E941C19298121
:100FE0003A814B815C810E94401903C060E070E04F
:100FF000CB016C0D7D1D8E1D9F1D0F900F900F90CE
:101000000F90DF91CF911F910F91FF90EF90DF90A4
:10101000CF9008953FB7F8948091790490917A0425
:10102000A0917B04B0917C0426B5A89B05C02F3FFE
:1010300019F00196A11DB11D3FBFBA2FA92F982FFE
:101040008827820F911DA11DB11DBC01CD0142E079
:10105000660F771F881F991F4A95D1F708958F92C1
:101060009F92AF92BF92CF92DF92EF92FF926B016D
:101070007C010E940A084B015C01C114D104E10407
:10108000F104F1F00E940A08DC01CB0188199909EA
:10109000AA09BB09883E9340A105B10570F321E080
:1010A000C21AD108E108F10888EE880E83E0981E84
:1010B000A11CB11CC114D104E104F10419F7DDCF66
:1010C000FF90EF90DF90CF90BF90AF909F908F9068
:1010D00008951F920F920FB60F9211242F933F93F2
:1010E0008F939F93AF93BF938091B5019091B60179
:1010F000A091B701B091B8013091780423E0230F9B
:101100002D3720F40196A11DB11D05C026E8230F3F
:101110000296A11DB11D209378048093B501909390
:10112000B601A093B701B093B80180917904909172
:101130007A04A0917B04B0917C040196A11DB11D9D
:101140008093790490937A04A0937B04B0937C04F9
:10115000BF91AF919F918F913F912F910F900FBEB3
:101160000F901F9018951F920F920FB60F92112497
:101170002F933F938F939F93AF93BF93EF93FF93DF
:1011800080917704882309F44FC08091670490917F
:101190006804A0916904B0916A04892B8A2B8B2B77
:1011A00051F180916604E0916404F09165049081AE
:1011B000892780838091670490916804A0916904D5
:1011C000B0916A04181619061A061B06D4F5809108
:1011D000670490916804A0916904B0916A04019732
:1011E000A109B1098093670490936804A0936904EE
:1011F000B0936A0426C01092730410927704809111
:101200006F008D7F80936F0090916604E09164047D
:10121000F09165048081282F30E0892F90E080953F
:101220009095822393230CC080917204811109C090
:1012300080916604E0916404F091650490818927AF
:101240008083FF91EF91BF91AF919F918F913F91DB
:101250002F910F900FBE0F901F901895CF93DF9393
:10126000D1E0E091B901F091BA019F012F5F3F4FAA
:101270003093BA012093B9018491982F907FC82FA1
:10128000CF70903821F48C2F0E949207EACF9039CA
:10129000F9F4E0918108F091820809958D278093F7
:1012A0007204E091B901F091BA01CF0101969093D7
:1012B000BA018093B901649180916304C81788F6DC
:1012C000C13009F052C0809162048111CACF4DC073
:1012D00097FD3AC03296F093BA01E093B901F90153
:1012E000249130E0382BA0917504B09176040E94CF
:1012F00094196C507E4F8F4F9F4F28EE33E040E0A3
:1013000050E00E94721920936B0430936C04409358
:101310006D0450936E0480916B0490916C04A091C5
:101320006D04B0916E04892B8A2B8B2B21F581E003
:1013300090E0A0E0B0E080936B0490936C04A093E5
:101340006D04B0936E0417C0903E49F48091BB01C8
:101350009091BC019093BA018093B90182CF903FE4
:1013600009F07FCF1092BD0106C067FD7ACF8C2FA8
:101370000E941B0776CFDF91CF9108951F920F92A5
:101380000FB60F9211242F933F934F935F936F9358
:101390007F938F939F93AF93BF93EF93FF9380912E
:1013A0007404882341F080917304811104C08091FA
:1013B0007204882351F18091BD01882381F18091CD
:1013C0006B0490916C04A0916D04B0916E04892B14
:1013D0008A2B8B2B21F180916B0490916C04A0914E
:1013E0006D04B0916E040197A109B10980936B045B
:1013F00090936C04A0936D04B0936E04892B8A2B98
:101400008B2B69F40E942E090AC080917104E0912F
:101410006F04F0917004908189278083CCCFFF9175
:10142000EF91BF91AF919F918F917F916F915F915C
:101430004F913F912F910F900FBE0F901F901895D5
:1014400090916304923009F471C0292F30E0F901C2
:10145000E05FFE4F4081F901E05AFB4F80839130FD
:1014600031F420916004281302C0909362049F5FBE
:101470009093630490E0FC01EA5DF34F2491FC013A
:10148000E95FF34F849130E0220F331FF901E750F9
:10149000F44F65917491F901E551F44FA591B49120
:1014A0009C91982B9C93413019F04330D9F00895CA
:1014B00090916400977F9093640010928000109246
:1014C00081009091810098609093810090918100BB
:1014D000916090938100709365046093640480939D
:1014E0006604089590916500977F9093650010922F
:1014F00090001092910090919100986090939100CB
:10150000909191009160909391007093700460931A
:101510006F048093710480916304882321F06CE34D
:1015200080E00E941B0780E00C94920708952D9A9A
:101530000895BC0180E090E00C942F088FB12CB18D
:1015400093B130E02095309520743327A90123E032
:10155000559547952A95E1F7292F30E0209530954C
:10156000207133273595279535952795242B809520
:10157000807F822B089583B7817F83BF83B781608B
:1015800083BF889583B78E7F83BF08958EBD00008B
:101590000DB407FEFDCF08955C980E94C60A5C9AC0
:1015A000089560387105D0F440345105B8F4E3EE85
:1015B000F6E080E1849FD001A0781124A60F477047
:1015C000E40FF11DE491AF57BB4F222319F04C916A
:1015D000E42B03C0E0954C91E423EC9308952F9203
:1015E0003F924F925F926F927F928F929F92AF92B3
:1015F000BF92CF92DF92EF92FF920F931F93CF9300
:10160000DF93CDB7DEB729970FB6F894DEBF0FBED4
:10161000CDBFFC016A3069F4248D808D918D38E056
:10162000239F800D911D1124918F808F178A168A18
:10163000AAC06D3009F4A7C099878887F48C338CD1
:10164000228C608C718C0689178900381105C4F0D2
:10165000A885B9855C962C915C97422F50E05696F0
:101660008D919C915797B6E02B9F800D911D112471
:10167000E885F985978B868B258D21116EC083C0F7
:10168000F0E46F16710424F7C80125E0F29E800D86
:10169000911D112418161906DCF68F2D90E09C83FD
:1016A0008B83C301A8E0FA9E800D911D11241816AA
:1016B000190674F6B5E06B9FB0011124FB01E551EA
:1016C000F94FFA83E98330E08885998504969E83F3
:1016D0008D83E981FA81E490353009F4E12C4301EE
:1016E00088E0482EE0FC02C0532C01C0522C51105F
:1016F0000BC0321009C0E6944A948B819C81880EFD
:10170000991E4110EFCF1BC068018C2D801B8F15D7
:1017100090F754018A2D88198F1568F4252DA5019D
:10172000B6018D819E813F830E94D10A9FEFA91A45
:10173000B90A3F81EFCFAFEFCA1ADA0AE6CF3F5FAF
:10174000EB81FC810E0F1F1F89819A8101969A837C
:101750008983363009F0BDCF7BCF6AEF64039001F7
:10176000659F300D112420583F4F281739075CF42E
:10177000A885B985ED91FC9111970190F081E02D3C
:101780006AE0CD01099581E090E029960FB6F894C2
:10179000DEBF0FBECDBFDF91CF911F910F91FF90A4
:1017A000EF90DF90CF90BF90AF909F908F907F9001
:1017B0006F905F904F903F902F900895FC01809123
:1017C0008004811103C08FEF9FEF08959FB7F894B5
:1017D00082E08093E9002091F20030E012161306B7
:1017E00014F421E030E02115310559F0289884E601
:1017F00080937F048091F10080838091F2008823A0
:1018000019F09FBFC90108958BE68093E800F9CFD6
:101810002FB7F89483E08093E9009091E800892F36
:10182000807295FF04C09091F20080E4891B2FBF65
:101830000895CF93DF931F92CDB7DEB76983DC01A4
:10184000ED91FC910280F381E02D41E050E0BE017A
:101850006F5F7F4F09950F90DF91CF91089583E0DF
:101860008093E9008091F200882319F08AE3809345
:10187000E80008950E94080C90E00895CF93DF934C
:101880001F92CDB7DEB7FC018485958597FD05C015
:101890002FEF3FEF358724870BC0CE0101960E94C2
:1018A000DE0B019719F4898190E002C08FEF9FEF62
:1018B0000F90DF91CF9108950F931F93CF93DF93F4
:1018C0001F92CDB7DEB78C01FC018485958597FF0B
:1018D0000EC0CE0101960E94DE0B019719F42981FA
:1018E00030E002C02FEF3FEFF80135872487F80181
:1018F000848595850F90DF91CF911F910F91089569
:10190000FC018485958597FD0BC09FB7F89482E014
:101910008093E9008091F2009FBF90E001960895C6
:101920009FB7F89482E08093E9008091F2009FBF16
:1019300090E008958F929F92AF92BF92CF92DF92E4
:10194000EF92FF920F931F93CF93DF935C016B0194
:101950007A0180910701882309F45BC0809180049B
:10196000882309F456C080917E0480FF05C08091D1
:10197000E00082608093E000E70110E00AEF83E07E
:10198000882E9AE3992E2097D9F10E94080C811194
:101990000AC0015009F43DC061E070E080E090E0D1
:1019A0000E942F08F0CF282F30E0C217D3070CF485
:1019B0008C2F4FB7F8948092E9009091E80095FF42
:1019C0001DC0282F30E0C21BD30BF601982F915079
:1019D00020F081918093F100FACFC20ED31E112323
:1019E00019F09092E80009C08091E80085FD06C0DA
:1019F0009092E80011E0209709F010E04FBFC3CFAC
:101A00001111C3CF5D9884E680937D041E141F04DA
:101A100044F081E090E0F5019383828380E090E0E0
:101A200001C0C701DF91CF911F910F91FF90EF90FF
:101A3000DF90CF90BF90AF909F908F90089520E05F
:101A400081E894E0B22FB111BFEFFC010024B19303
:101A5000B193B193B1930394D1F708958091810428
:101A60008EBDE2E8F4E081910DB407FEFDCF8EBD9E
:101A700088E0E138F807B9F70DB407FEFDCF089507
:101A800020918E08282329F090918D08982381E0D9
:101A900009F080E0089520918E08282329F4909180
:101AA0008D08982381E009F480E00895CF93DF93B7
:101AB000009779F0FC0101900020E9F73197AF0120
:101AC000481B590BBC0184E898E00E94F006EC0129
:101AD00002C0C0E0D0E042E050E061EB71E084E899
:101AE00098E00E94F0068C0F9D1FDF91CF91089522
:101AF0002F923F924F925F926F927F928F929F921E
:101B0000AF92BF92CF92DF92EF92FF920F931F930B
:101B1000CF93DF93CDB7DEB728970FB6F894DEBF2B
:101B20000FBECDBF5A01822E912C9C01280D391D6C
:101B300037FDC4C0803891050CF0C0C09B01200F58
:101B4000311D37FDBBC0603471050CF0B7C0AB016F
:101B500077FF04C044275527461B570B477055276E
:101B60009B0177FF02C0295F3F4FE3E03595279542
:101B7000EA95E1F777FF08C02150310968E070E08D
:101B8000DB01A41BB50BAD01602F669566956695CC
:101B900070E0077011F06F5F7F4FDB01A20FB31F82
:101BA000BA83A98339017694762C66247794679456
:101BB000680E791EE12CF12C00E010E02301B0E862
:101BC0004B0E511C68E070E0DB01A41BB50BBC831D
:101BD000AB8369817A812617370709F46FC02830F3
:101BE000310509F46BC02F3FBFEF3B070CF45BC01E
:101BF000B201600F711FDB01AF57BB4FBE83AD83D6
:101C0000D801A60DB71DAF57BB4F6C0160E070E067
:101C1000681579050CF047C0E0E8CE16D10409F448
:101C200042C0D7FC34C02F3FFFEF3F0709F442C04A
:101C3000FB01EE0DFF1DEA0DFB1DE491042E01C01A
:101C4000EE0F0A94EAF73C90E329EC934115510515
:101C5000F1F027303105D9F0FB01EE0DFF1DEA0D43
:101C6000FB1DE4912E2E312CF1010B8002C0F59565
:101C7000E7950A94E2F7F887EF83ED81FE813080E3
:101C8000EF81F885E3291F01ED81FE8120826F5FDE
:101C90007F4FED81FE813196FE83ED83FFEFCF1AFA
:101CA000DF0A1196B5CF2F5F3F4F00581F4FE80C4A
:101CB000F91C8FCF4115510579F6E9CF28960FB65B
:101CC000F894DEBF0FBECDBFDF91CF911F910F9172
:101CD000FF90EF90DF90CF90BF90AF909F908F904C
:101CE0007F906F905F904F903F902F9008958091DC
:101CF000A60881110DC082E08093A20884E0809341
:101D0000A3081092A5081092A40881E08093A60869
:101D100082EA98E0089540910209509103092091C8
:101D200000093091010942175307B4F49091E8007B
:101D30009570E1F39091E80092FD19C08093F10055
:101D4000809102099091030901968F739927892B3D
:101D500019F48EEF8093E8008091020990910309B5
:101D60000196909303098093020981E0089580E031
:101D70000895DF92EF92FF920F931F93CF93DF931B
:101D8000D82E8A017B01E40EF51EEB01CE15DF058E
:101D900071F0D7FE03C0FE01849101C088810E94CA
:101DA0008B0E21968111F2CF8FEF9FEF01C0C801FA
:101DB000DF91CF911F910F91FF90EF90DF900895E9
:101DC000615030F02091F100FC0120830196F8CFA2
:101DD000289884E680937F0408950F931F93CF93F0
:101DE000DF931F92CDB7DEB782E0898342E450E0F3
:101DF00065E17DE080E80E94B90E0E94770EDC016B
:101E000012960D911C9113970115110569F0D801D7
:101E1000ED91FC910280F381E02DBE016F5F7F4F59
:101E2000C801099597FF07C089810F90DF91CF9175
:101E30001F910F910895F80100851185E5CF1F923C
:101E40000F920FB60F9211248F939F938091E10010
:101E50009091E100937F9093E10083FF0FC0109277
:101E6000E90091E09093EB001092EC0092E39093E4
:101E7000ED001092800498E09093F00082FF20C063
:101E800093E09093E9009091F200992319F09AE37E
:101E90009093E80090917D04992339F090917D040E
:101EA000915090937D04992389F190917F04992317
:101EB00039F090917F04915090937F04992341F1E0
:101EC00084FF10C08091E2008E7E81608093E200EA
:101ED0008091E1008F7E8093E10080917E048E7E70
:101EE000806111C080FF16C08091E2008E7E80610B
:101EF0008093E2008091E1008E7E8093E1008091EA
:101F00007E048E7E816080937E0404C05D9ACDCF76
:101F1000289AD6CF9F918F910F900FBE0F901F9050
:101F200018951F920F920FB60F921124CF92DF9245
:101F3000EF92FF920F931F932F933F934F935F93D3
:101F40006F937F938F939F93AF93BF93EF93FF9381
:101F5000CF93DF93CDB7DEB76C97DEBFCDBF1092C6
:101F6000E9008091E80083FFEDC168E0CE0145966D
:101F70000E94E00E82EF8093E8008D8987FF05C004
:101F80009091E80090FFFCCF03C09EEF9093E80093
:101F9000982F907609F0C6C09E892F89188D9111CF
:101FA0000CC0803829F48091FF088093F10002C0B2
:101FB0001092F1001092F10048C1422F50E0512BD5
:101FC000913051F4811141C14130510509F03DC1B9
:101FD0008091FF088D7F0BC0933061F4811135C172
:101FE0004130510509F031C18091FF088260809332
:101FF000FF082BC1953041F48091E80080FFFCCFB1
:1020000020682093E30021C1963009F05FC0EB8C7B
:10201000FC8C1092E9001092030910920209123010
:1020200091F510920109109200090E94ED0E99E0BD
:10203000BE016F5F7F4FDB01E92F1D92EA95E9F743
:1020400099831A8391E09E8390EA98879AEF998703
:102050002091020930910309275F3F4F3C832B8376
:102060008D831092E9001092030910920209F092F8
:102070000109E092000949E050E080E00E94B90EB9
:102080000E94ED0EE2C0F0920109E09200090E9468
:10209000770EDC011296ED90FC901397E114F10499
:1020A00009F4C0C0D701ED91FC910480F581E02DC9
:1020B000BE016B5E7F4FC7010995009719F00CF0C8
:1020C000C4C0C7C0F701E084F184E8CF973009F4B9
:1020D000C0C0983021F481E08093F100B6C09930FF
:1020E00009F0B3C0837009F0B4C0E9E3F1E081E026
:1020F00021E036E39081992361F08093E9002093F9
:10210000EB0091919093EC003093ED008F5F87305E
:1021100089F78EE78093EA001092EA008F89809316
:10212000800493C08B8D9C8D1092E900109203095E
:10213000109202099093010980930009898D811101
:1021400056C08E899D89913A59F4813209F081C037
:1021500047E050E060E071E080E00E94B90E75C099
:10216000913209F076C0833289F4888D90E0982FFF
:1021700088272F89822BA0E0B0E0809308019093FC
:102180000901A0930A01B0930B015FC0803269F48A
:102190008091E80082FFFCCF67E080E091E00E9440
:1021A000E00E8BEF8093E80006C0823209F04DC04C
:1021B0008F89809307018091FE08882319F0EEEF44
:1021C000FAE002C0E0E0F8E08091000190910101A6
:1021D000A0910201B0910301803B9440A105B1059B
:1021E00009F07BC08091070180FF93C076C00E94F8
:1021F000770EDC0112960D911C91139701151105B4
:1022000041F1D801ED91FC910190F081E02DBE01EA
:102210006B5E7F4FC8010995811117C0F8010085D9
:102220001185ECCF113009F44EC0133091F48F8931
:10223000882309F445C0823081F440E860E189E7F1
:102240009DE00E949118882321F08EEF8093E80092
:1022500079C081E28093EB0075C0813029F440E8B9
:102260006BE08DE69DE0EDCF833099F70E94770E0D
:10227000DC011296ED90FC9013978E010F5F1F4FBB
:102280006801E114F10479F0D701ED91FC91068029
:10229000F781E02DB801C7010995080F111DF7015D
:1022A000E084F184EECFD8011C92F6010190002069
:1022B000E9F73197BF016C197D0940E0C601C1CF34
:1022C00067E57DE002C06BE57DE06115710509F20F
:1022D000FB01449150E080E840CF0FB6F894A895F8
:1022E00080916000886180936000109260000FBE52
:1022F000A895EE3F2AE0F20739F08091FE0A90910E
:10230000FF0A91838083A1CF1092FF0A1092FE0AE8
:102310009CCFEE3F8AE0F80731F080819181909365
:10232000FF0A8093FE0A87E797E7918380839BE00B
:1023300088E10FB6F894A895809360000FBE909343
:10234000600083CF6C960FB6F894DEBF0FBECDBF92
:10235000DF91CF91FF91EF91BF91AF919F918F91BD
:102360007F916F915F914F913F912F911F910F91AD
:10237000FF90EF90DF90CF900F900FBE0F901F90C7
:102380001895CF93DF93CDB7DEB762970FB6F89469
:10239000DEBF0FBECDBF789484B5826084BD84B5A6
:1023A000816084BD85B5826085BD85B5816085BD50
:1023B00080916E00816080936E0010928100809108
:1023C0008100826080938100809181008160809390
:1023D00081008091800081608093800080919100D5
:1023E0008260809391008091910081608093910040
:1023F000809190008160809390008091C100846002
:102400008093C1008091C10082608093C10080915F
:10241000C10081608093C1008091C300816080937E
:10242000C3008091C00082608093C0008091C20090
:1024300081608093C20080917A00846080937A00EA
:1024400080917A00826080937A0080917A00816026
:1024500080937A0080917A00806880937A0010924D
:1024600080041092FF0810927E048091D700816052
:102470008093D70080EA8093D80089B5806189BDB8
:1024800089B5826089BD09B400FEFDCF61E070E0CE
:1024900080E090E00E942F088091D8008F7C8061BE
:1024A0008093D8008091E000807F8093E00080914D
:1024B000E1008E7E8093E1008DE08093E200559AEA
:1024C000209AEEEFFFE7859194918B3F9C4D19F494
:1024D00081E08093FE0881EC80937C0085B1806F61
:1024E00085B9249884B1866E84B95E9A5F988AB162
:1024F000806D8AB9769A6E9881B3806F81BB899816
:1025000080B38D7080BB80E58CBD81E08DBD85E0A2
:1025100090E00E94990A5F9A85E090E00E94990AF3
:102520005E985C986AE7E62E61E0F62E1DE01E0DCF
:10253000F70184910E94C60AFFEFEF1AFF0A1E11ED
:10254000F7CF5C9A81E88093640081E08093650016
:1025500000E014E080E00E94C60A01501109D1F7A2
:102560000E949E0A87FF1DC085EA0E94CC0A2E9811
:102570002F982D98809164008062809364000E945F
:10258000BB0AFDCF2D980E949E0A8478843871F092
:102590000E949E0A8471843131F188EC90E00E949F
:1025A000990A0E949E0A82FDEDCF3AC00E94970AC6
:1025B00088EC90E00E94990A2F9882E090E00E94B7
:1025C0002A198F3F29F06FEF82E090E00E943219C4
:1025D00084EF91E00E94990A2F9A0E949E0A8478C3
:1025E0008438D9F3D5CF0E94970A88EC90E00E94F6
:1025F000990A2E9882E090E00E942A19882329F0F7
:1026000060E082E090E00E94321984EF91E00E9445
:10261000990A2E9A0E949E0A84718431D9F3BDCF03
:102620000E94970A82E090E00E942A19882331F0E4
:102630003E9A3F9A81E08093B40104C01092B401A5
:102640003E983F982E985EEEE52EFF24FA940E9465
:102650009E0A86FF04C02E9A2F9A2D9A3FC02CEF17
:10266000E2162FEFF20619F42E9A2F9806C068E1B1
:10267000E616F10411F42F9A2D980E941F0D00E127
:1026800028E54AEC50E0B70184E190E00E94780D23
:102690000E942E0D8BE190E00E94990A80EFE816CF
:1026A0008FEFF80621F48AEF90E00E94990A9FEFDD
:1026B000E91AF90AA9E1EA16F10449F68CEB92E06D
:1026C0000E94990A0E94970AE0918808F09189086F
:1026D0000190F081E02D88E898E0099582E390E090
:1026E0000E94990A0E949E0A8111F8CF80E180938E
:1026F0008F080E941F0D10929D0810929C08109246
:102700009B0810929A0802EC11E028EC30E040E0BF
:1027100050E068E37FEF8FEF9FEF0E94CD070E94AC
:10272000C41AF801608371838283938328EC30E0BC
:1027300040E050E068E37FEF8FEF9FEF0E94CD070E
:102740000E94C41AD80114966D937D938D939C9327
:10275000179728EC30E040E050E068EC70E080E053
:1027600090E00E94CD070E94C41AF801608771872B
:102770008287938723E330E040E050E061E070E03F
:1027800080E090E00E94CD07D80155967C936E932F
:1027900054970A5E1F4FB4E006351B0709F0B5CF0A
:1027A000809164008E7F8093640080917A008064C1
:1027B00080937A0080917A0086FDFCCF00917800AA
:1027C000109179000E940A0820E030E0980111275A
:1027D0000027600F711F821F931F6115710581050E
:1027E000910511F00E94211980916400816080930D
:1027F000640085E00E94200A8DE00E94200A34E1F6
:10280000232E312C2FB7F8948091B5019091B60109
:10281000A091B701B091B8012FBF40919408509199
:102820009508609196087091970820919808222346
:1028300041F020919008821B80939908109298088B
:10284000D7C384179507A607B70738F4481B42304B
:1028500008F4CEC30E94BB0ACBC311E010939808C2
:102860008093900890939108A0939208B093930856
:1028700020918F08820F911DA11DB11D8093940896
:1028800090939508A0939608B093970880918B0831
:1028900090918C08019690938C0880938B0880917E
:1028A000BD0181110EC087E895E09093BC01809333
:1028B000BB019093BA018093B9010E942E09109335
:1028C000BD010E941F0D10929D0810929C0810924D
:1028D0009B0810929A0880918D0880938E080E9420
:1028E0009E0A80938D080E949E0A87FF0CC08FE885
:1028F00092ECA5EFBCE380935B0490935C04A093FF
:102900005D04B0935E040E949E0A84FF0CC08FE8B1
:1029100092ECA5EFBCEB80935B0490935C04A093D6
:102920005D04B0935E040E949E0A85FF0CC08DEC8E
:102930009CECACE4BDEB8093570490935804A093B7
:102940005904B0935A040E949E0A86FF0CC08DEC75
:102950009CECACE4BDE38093570490935804A0939F
:102960005904B0935A0488E00E944B0D81111092D3
:10297000560484E00E944B0D882319F081E0809377
:1029800056040E949E0A8C708C3029F480E80E94C4
:102990004B0D811135C30E949E0A8C708C3029F436
:1029A00080E10E944B0D811134C380E80E94400DEC
:1029B000882341F010925B0410925C0410925D0435
:1029C00010925E0480E10E94400D882341F0109235
:1029D0005B0410925C0410925D0410925E0480E22D
:1029E0000E94400D882341F0109257041092580421
:1029F0001092590410925A0480E40E94400D8823DA
:102A000041F01092570410925804109259041092F9
:102A10005A0480915B0490915C04A0915D04B09194
:102A20005E048D839E83AF83B88780915704909115
:102A30005804A0915904B0915A0489879A87AB87AA
:102A4000BC87A2ECB1E0BA8BA98B20E030E048EC67
:102A500051E4E989FA8960857185828593850E94B0
:102A6000A3196B017C01A989BA8918966D937D938E
:102A70008D939C931B9720E030E0A9016D817E81AE
:102A80008F8198850E94101A882309F456C0E9891D
:102A9000FA8944805580668077806D817E818F8140
:102AA00098850E94151A4B015C016D817E818F8192
:102AB00098850E94201C69837A838B839C83A5015F
:102AC0009401C301B2010E94B31B6D877E878F877B
:102AD000988B29813A814B815C81C701B6010E94A4
:102AE000B31B9B01AC016D857E858F8598890E9403
:102AF000A319A989BA8914966D937D938D939C939C
:102B00001797A5019401C701B6010E94B31B6B0181
:102B10007C0129813A814B815C81C301B2010E9411
:102B2000B31B9B01AC01C701B6010E94A419E9893E
:102B3000FA89608771878287938720E030E0A90156
:102B400069857A858B859C850E94101A882309F4F3
:102B50005FC0A989BA894D905D906D907C90139764
:102B600014968D919D910D90BC91A02D89839A838F
:102B7000AB83BC8369857A858B859C850E94151AF9
:102B80004B015C0169857A858B859C850E94201CA0
:102B90006B017C01A5019401C301B2010E94B31B2A
:102BA0006D877E878F87988BA701960169817A81CF
:102BB0008B819C810E94B31B9B01AC016D857E853E
:102BC0008F8598890E94A319E989FA8960837183A6
:102BD00082839383A501940169817A818B819C8191
:102BE0000E94B31B4B015C01A7019601C301B20116
:102BF0000E94B31B9B01AC01C501B4010E94A41942
:102C0000A989BA8914966D937D938D939C93179798
:102C1000E989FA89C084D184E284F384A70196010A
:102C200060817181828193810E941A1A20E030E0D4
:102C300048EC52E40E94B31B20E030E040E852E44C
:102C40000E94A4190E948C1AA989BA891D967C93A6
:102C50006E931C97A701960114966D917D918D91AD
:102C60009C9117970E941A1A20E030E048EC52E439
:102C70000E94B31B20E030E040E052E40E94A4191F
:102C80000E948C1AE989FA89778766872FB7F894AA
:102C90008091B5019091B601A091B701B091B801B2
:102CA0002FBF8093BE019093BF01A093C001B0934A
:102CB000C101248535852138310560F486859785E5
:102CC0008134910538F42034310509F08CC08097A7
:102CD00009F089C028EE33E040E050E06CE07EEF80
:102CE0008FEF9FEF0E94CD070E94C41AA989BA896D
:102CF0006D937D938D939C93139728EE33E040E082
:102D000050E06CE07EEF8FEF9FEF0E94CD070E94B6
:102D1000C41AE989FA89648375838683978320EDD1
:102D200037E040E050E064E670E080E090E00E9430
:102D3000CD070E94C41AA989BA8918966D937D930C
:102D40008D939C931B9723E330E040E050E061E0DB
:102D500070E080E090E00E94CD07E989FA89758BE8
:102D6000648B80849184A284B384A50194016081E2
:102D70007181828193810E941A1A20E030E048EC30
:102D800052E40E94B31B20E030E040E852E40E948D
:102D9000A4190E948C1A6B017C01A989BA891D961D
:102DA0007C936E931C97A501940114966D917D916F
:102DB0008D919C9117970E941A1A20E030E048EC00
:102DC00052E40E94B31B20E030E040E052E40E9455
:102DD000A4190E948C1AE989FA8977876687D18AB3
:102DE000C08A738B628BA989BA8952968D919C9106
:102DF000539750960D911C9151971E96CD90DC9053
:102E00001F971C96ED90FC901D97AC014C195D0925
:102E100057FF03C051954195510998012E193F095B
:102E200037FF03C0319521953109B1E0B9832417EB
:102E3000350714F019820AC0302F212F8C01832FFF
:102E4000922F3E2D2F2D7601C32ED22E0E151F054B
:102E500054F43C2D2D2D6C01832F922F3E2D2F2DC0
:102E60007801032F122F28014E185F084C018C188F
:102E70009D0897FE03C0919481949108520157FEDA
:102E800003C0EFEFAE1ABE0AB594A794C816D906D0
:102E900014F08FEF01C081E0682E880F77080E15BF
:102EA0001F05CCF0F98121E0FF2319F0A701B6013D
:102EB00002C0A601B70188E898E00E94D10AA818CC
:102EC000B908B7FE04C0C60CD71CA40CB51C2FEF64
:102ED000E21AF20AE4CFA989BA891C968D919C91D5
:102EE0001D9751969C938E9350971E968D919C9111
:102EF0001F9753969C938E9352975696BA8BA98B95
:102F0000A655B44009F0A1CD80915604882309F458
:102F100060C030929B0820929A0883E090E09093E2
:102F20009D0880939C088FE391E00E94560DA3E0DA
:102F3000B0E0B0939B08A0939A08EFE0F0E0F09324
:102F40009D08E0939C088FE491E00E94560D82E07A
:102F500090E090939B0880939A08A8E1B0E0B0932A
:102F60009D08A0939C0885E691E00E94560DE7E03D
:102F7000F0E0F0939B08E0939A0881E290E0909350
:102F80009D0880939C088BE791E00E94560D30923B
:102F90009B0820929A08ADE2B0E0B0939D08A09300
:102FA0009C088FE891E00E94560D89E090E0909394
:102FB0009B0880939A0886E390E090939D08809305
:102FC0009C088EE991E00E94560D87EA0E94CC0A87
:102FD0000DC086EA0E94CC0A00E420E847E851E0F0
:102FE00060E070E080E090E00E94780D0E942E0D7D
:102FF00080E090E0892B09F405CC0E94000002CC0F
:1030000010925704109258041092590410925A04C6
:10301000C2CC10925B0410925C0410925D0410927A
:103020005E04C3CC0F931F93CF93DF938C0181E099
:1030300090E00E942A1980FF31C08AE090E00E944F
:103040002A199FEF980F9E3F48F522E330E0D80100
:1030500057963C932E93569728E330E059963C932D
:103060002E935897CBE0D0E0D801ED91FC910190E0
:10307000F081E02D682FC8010995CE010E942A1920
:103080002196C131D10581F70E942E0D88EE93E083
:10309000DF91CF911F910F910C94990ADF91CF91FD
:1030A0001F910F91089504970C941218EEEAF8E01E
:1030B0001382128288EE93E0A0E0B0E084839583CF
:1030C000A683B78386E191E0918380838FEF9FEFA2
:1030D00095878487E4E8F8E01382128211861286CD
:1030E00020E1238790878783108A118A128A138AA6
:1030F000148A88E291E09183808386E391E095834E
:103100008483178A168A118E108E81E0828F138E27
:10311000848F158E83EC97E09093820880938108CA
:103120000895CF92DF92EF92FF920F931F93CF9368
:10313000DF931F92CDB7DEB7182F062FE42E862F10
:10314000880F8E5F99830E948B0E83E00E948B0E06
:10315000F12EC12E9981D92E8C2D8F19801798F4BC
:10316000F601E7FE02C0849101C080810E948B0EAF
:10317000182F80E00E948B0E8123FFEFCF1ADF0A09
:103180008111EACF01C081E00F90DF91CF911F91B3
:103190000F91FF90EF90DF90CF9008958F929F92C4
:1031A000AF92BF92CF92DF92EF92FF92CF93DF93D5
:1031B000EC01688179818A819B81611571058105A6
:1031C000910521F464E279ED8BE597E02DE133EF91
:1031D00041E050E00E94401949015A019B01AC01B5
:1031E000A7EAB1E40E945F196B017C01ACEEB4EF79
:1031F000A50194010E946D19DC01CB018C0D9D1D70
:10320000AE1DBF1DB7FF03C00197A109B048888359
:103210009983AA83BB83BC01CD019F77DF91CF91B6
:10322000FF90EF90DF90CF90BF90AF909F908F90E6
:1032300008950E94CE1808958CE091E00E94CE1867
:10324000089560930C0170930D0180930E0190938B
:103250000F010895F999FECF92BD81BDF89A992783
:1032600080B50895262FF999FECF1FBA92BD81BD72
:1032700020BD0FB6F894FA9AF99A0FBE01960895F8
:10328000052E97FB1EF400940E94571957FD07D096
:103290000E94721907FC03D04EF40C9457195095F4
:1032A0004095309521953F4F4F4F5F4F0895909532
:1032B0008095709561957F4F8F4F9F4F08950E9425
:1032C0009419A59F900DB49F900DA49F800D911D02
:1032D00011240895B7FF0C945F190E945F19821B97
:1032E000930B0895A1E21A2EAA1BBB1BFD010DC072
:1032F000AA1FBB1FEE1FFF1FA217B307E407F507A6
:1033000020F0A21BB30BE40BF50B661F771F881F81
:10331000991F1A9469F760957095809590959B0117
:10332000AC01BD01CF010895A29FB001B39FC001C0
:10333000A39F700D811D1124911DB29F700D811DE1
:103340001124911D08955058BB27AA270E94BB192C
:103350000C94651B0E942C1B38F00E94331B20F03C
:1033600039F49F3F19F426F40C94291B0EF4E095D0
:10337000E7FB0C94231BE92F0E948A1B58F3BA1712
:10338000620773078407950720F079F4A6F50C947B
:10339000AC1B0EF4E0950B2EBA2FA02D0B01B9013A
:1033A00090010C01CA01A0011124FF27591B99F0BB
:1033B000593F50F4503E68F11A16F040A22F232FC7
:1033C000342F4427585FF3CF469537952795A79517
:1033D000F0405395C9F77EF41F16BA0B620B730BBE
:1033E000840BBAF09150A1F0FF0FBB1F661F771F2F
:1033F000881FC2F70EC0BA0F621F731F841F48F4E4
:10340000879577956795B795F7959E3F08F0B0CF6C
:103410009395880F08F09927EE0F97958795089553
:103420000E94FF1A08F481E008950E943C1BE39576
:103430000C94761B0E942E1A0C94651B0E94331B61
:1034400058F00E942C1B40F029F45F3F29F00C94A7
:10345000231B51110C94AD1B0C94291B0E948A1B39
:1034600068F39923B1F3552391F3951B550BBB27B3
:10347000AA2762177307840738F09F5F5F4F220FF8
:10348000331F441FAA1FA9F335D00E2E3AF0E0E8EF
:1034900032D091505040E695001CCAF72BD0FE2F39
:1034A00029D0660F771F881FBB1F261737074807CD
:1034B000AB07B0E809F0BB0B802DBF01FF27935885
:1034C0005F4F3AF09E3F510578F00C94231B0C940B
:1034D000AD1B5F3FE4F3983ED4F3869577956795EF
:1034E000B795F7959F5FC9F7880F911D96958795BA
:1034F00097F90895E1E0660F771F881FBB1F6217D9
:1035000073078407BA0720F0621B730B840BBA0B96
:10351000EE1F88F7E09508950E94931A6894B11100
:103520000C94AD1B08950E94921B88F09F5798F051
:10353000B92F9927B751B0F0E1F0660F771F881FB8
:10354000991F1AF0BA95C9F714C0B13091F00E94D2
:10355000AC1BB1E008950C94AC1B672F782F882723
:10356000B85F39F0B93FCCF3869577956795B395F9
:10357000D9F73EF490958095709561957F4F8F4F68
:103580009F4F0895E89409C097FB3EF4909580956D
:10359000709561957F4F8F4F9F4F9923A9F0F92F19
:1035A00096E9BB279395F695879577956795B79597
:1035B000F111F8CFFAF4BB0F11F460FF1BC06F5F7D
:1035C0007F4F8F4F9F4F16C0882311F096E911C08F
:1035D000772321F09EE8872F762F05C0662371F0B0
:1035E00096E8862F70E060E02AF09A95660F771FC4
:1035F000881FDAF7880F9695879597F90895990FA0
:103600000008550FAA0BE0E8FEEF16161706E807AC
:10361000F907C0F012161306E407F50798F0621BCD
:10362000730B840B950B39F40A2661F0232B242BA2
:10363000252B21F408950A2609F4A140A6958FEFC1
:10364000811D811D089597F99F6780E870E060E013
:1036500008959FEF80EC089500240A94161617062B
:1036600018060906089500240A9412161306140673
:10367000050608950C94291B0E94921BD8F3E89428
:10368000E0E0BB279F57F0F02AED3FE049EC06C091
:10369000EE0FBB0F661F771F881F28F0B23A620734
:1036A0007307840728F0B25A620B730B840BE395FF
:1036B0009A9572F7803830F49A95BB0F661F771F82
:1036C000881FD2F790480C942A1C092E0394000CF2
:1036D00011F4882352F0BB0F40F4BF2B11F460FFAC
:1036E00004C06F5F7F4F8F4F9F4F0895EF93E0FFB0
:1036F00007C0A2EA2AED3FE049EC5FEB0E94BB194C
:103700000E94651B0F90039401FC9058ECEAF0E0D6
:103710000C94361C57FD9058440F551F59F05F3FCD
:1037200071F04795880F97FB991F61F09F3F79F0E3
:1037300087950895121613061406551FF2CF469565
:10374000F1DF08C0161617061806991FF1CF8695E7
:103750007105610508940895E894BB2766277727CB
:10376000CB0197F908950E94C61B0C94651B0E941B
:103770002C1B38F00E94331B20F0952311F00C9481
:10378000231B0C94291B11240C94AD1B0E948A1B33
:1037900070F3959FC1F3950F50E0551F629FF001A4
:1037A000729FBB27F00DB11D639FAA27F00DB11DBD
:1037B000AA1F649F6627B00DA11D661F829F222746
:1037C000B00DA11D621F739FB00DA11D621F839FCD
:1037D000A00D611D221F749F3327A00D611D231FA3
:1037E000849F600D211D822F762F6A2F11249F57F1
:1037F00050409AF0F1F088234AF0EE0FFF1FBB1FF4
:10380000661F771F881F91505040A9F79E3F5105B2
:1038100080F00C94231B0C94AD1B5F3FE4F3983EA7
:10382000D4F3869577956795B795F795E7959F5F5C
:10383000C1F7FE2B880F911D9695879597F90895EE
:103840009F930E943C1B0F9007FCEE5F0C94761B2D
:103850009F3F31F0915020F4879577956795B79504
:10386000880F911D9695879597F908959F938F934B
:103870007F936F93FF93EF939B01AC010E94B31B67
:10388000EF91FF910E944A1C2F913F914F915F91C0
:103890000C94B31BDF93CF931F930F93FF92EF9280
:1038A000DF927B018C01689406C0DA2EEF010E9442
:1038B000C61BFE01E894A59125913591459155913E
:1038C000A6F3EF010E94BB19FE019701A801DA944B
:1038D00069F7DF90EF90FF900F911F91CF91DF91EB
:1038E0000895EE0FFF1F0590F491E02D099481E0FB
:0C38F00090E0F8940C947C1CF894FFCF3E
:1038FC0000E1000000000000FFFFFFFF01000000DE
:10390C00030100000000190C9A0C3A0C2F0C800CCF
:10391C003E0C5C0C00000000EF0AF006C807C7075D
:10392C001218FCFF0000531800C1808100000043F6
:10393C004F4E47524154554C4154494F4E53004FF2
:10394C006E20796F75722065706963207669637477
:10395C006F727921007768617420746865206865DE
:10396C00636B2069732074686973007468696E678F
:10397C00207468617420796F7520776F6E3F0046F4
:10398C00696E64206F757420686572653A006475A1
:10399C00616C6F676861636B61746F6E2E636F6DC2
:0439AC00000D0A0000
:00000001FF
